:020000040800F2
:1000000000500020B91D00081D1500081F1500082C
:100010002115000823150008251500080000000020
:10002000000000000000000000000000271500088C
:1000300029150008000000002B1500082D150008E8
:10004000011E0008011E0008011E0008011E000814
:10005000011E0008011E0008011E0008011E000804
:10006000011E0008011E0008011E0008011E0008F4
:10007000011E0008011E0008011E000835150008B9
:1000800045150008011E0008011E0008011E000899
:10009000011E0008011E0008011E0008011E0008C4
:1000A000011E0008011E0008011E0008011E0008B4
:1000B000011E0008011E000855150008011E000859
:1000C000011E0008011E0008011E0008011E000894
:1000D000011E00086515000879150008011E0008BA
:1000E000011E0008011E0008011E0008000000009B
:1000F0000000000000000000000000000000000000
:0C01000000000000000000005FF808F1A3
:10011000844641EA000313F0030349D1403A23D354
:100120000B6803604B6843608B688360CB68C36077
:100130000B6903614B6943618B698361CB69C3615F
:100140000B6A03624B6A43628B6A8362CB6AC36247
:100150000B6B03634B6B43638B6B8363CB6BC3632F
:1001600040304031403ADBD230320BD30B68036071
:100170004B6843608B688360CB68C360103010317C
:10018000103AF3D20C3205D351F8043B40F8043B4B
:10019000043AF9D2043208D0D2071CBF11F8013B4F
:1001A00000F8013B01D30B8803806046704700BF15
:1001B000082A13D38B07B1D010F00303AED0C3F1DC
:1001C0000403D21ADB071CBF11F8013B00F8013B06
:1001D000A4D331F8023B20F8023B9FE7043AD9D37D
:1001E000013A11F8013B00F8013BF9D20B7803709A
:1001F0004B7843708B7883706046704781F0004184
:1002000002E000BF83F0004330B54FEA41044FEAFB
:10021000430594EA050F08BF90EA020F1FBF54EA96
:10022000000C55EA020C7FEA645C7FEA655C00F032
:10023000E2804FEA5454D4EB5555B8BF6D420CDD03
:100240002C4480EA020281EA030382EA000083EA86
:10025000010180EA020281EA0303362D88BF30BD26
:1002600011F0004F4FEA01314FF4801C4CEA11317C
:1002700002D0404261EB410113F0004F4FEA0333DB
:100280004CEA133302D0524263EB430394EA050F66
:1002900000F0A780A4F10104D5F1200E0DDB02FAD5
:1002A0000EFC22FA05F2801841F1000103FA0EF269
:1002B000801843FA05F359410EE0A5F120050EF12F
:1002C000200E012A03FA0EFC28BF4CF0020C43FA60
:1002D00005F3C01851EBE37101F0004507D54FF06D
:1002E000000EDCF1000C7EEB00006EEB0101B1F5BD
:1002F000801F1BD3B1F5001F0CD349085FEA300003
:100300004FEA3C0C04F101044FEA445212F5800F0D
:1003100080F09A80BCF1004F08BF5FEA500C50F1AA
:10032000000041EB045141EA050130BD5FEA4C0C8D
:10033000404141EB0101013C28BFB1F5801FE9D2EA
:1003400091F0000F04BF01460020B1FA81F308BF0D
:100350002033A3F10B03B3F120020CDA0C3208DDD9
:1003600002F1140CC2F10C0201FA0CF021FA02F1B4
:100370000CE002F11402D8BFC2F1200C01FA02F124
:1003800020FA0CFCDCBF41EA0C019040E41AA2BF49
:1003900001EB0451294330BD6FEA04041F3C1CDA11
:1003A0000C340EDC04F11404C4F1200220FA04F031
:1003B00001FA02F340EA030021FA04F345EA0301DB
:1003C00030BDC4F10C04C4F1200220FA02F001FA9D
:1003D00004F340EA0300294630BD21FA04F029461F
:1003E00030BD94F0000F83F4801306BF81F48011B8
:1003F0000134013D4EE77FEA645C18BF7FEA655C2B
:1004000029D094EA050F08BF90EA020F05D054EAFC
:10041000000C04BF1946104630BD91EA030F1EBF01
:100420000021002030BD5FEA545C05D14000494105
:1004300028BF41F0004130BD14F580043CBF01F5F8
:10044000801130BD01F0004545F0FE4141F47001DE
:100450004FF0000030BD7FEA645C1ABF19461046B9
:100460007FEA655C1CBF0B46024650EA013406BFBA
:1004700052EA033591EA030F41F4002130BD00BF79
:1004800090F0000F04BF0021704730B54FF4806436
:1004900004F132044FF000054FF0000150E700BFB7
:1004A00090F0000F04BF0021704730B54FF4806416
:1004B00004F1320410F0004548BF40424FF0000103
:1004C0003EE700BF42004FEAE2014FEA31014FEA46
:1004D00002701FBF12F07F4393F07F4F81F0605195
:1004E000704732F07F4208BF704793F07F4F04BFE0
:1004F00041F40021704730B54FF4607401F00045BD
:1005000021F000411CE700BF50EA010208BF70471C
:1005100030B54FF000050AE050EA010208BF70470D
:1005200030B511F0004502D5404261EB41014FF476
:10053000806404F132045FEA915C3FF4D8AE4FF07E
:1005400003025FEADC0C18BF03325FEADC0C18BF61
:10055000033202EBDC02C2F1200300FA03FC20FAB2
:1005600002F001FA03FE40EA0E0021FA02F11444FF
:10057000BDE600BF70B54FF0FF0C4CF4E06C1CEA18
:1005800011541DBF1CEA135594EA0C0F95EA0C0F89
:1005900000F0DEF82C4481EA030621EA4C5123EAFC
:1005A0004C5350EA013518BF52EA033541F480112B
:1005B00043F4801338D0A0FB02CE4FF00005E1FBDE
:1005C00002E506F00042E0FB03E54FF00006E1FB28
:1005D00003569CF0000F18BF4EF0010EA4F1FF046B
:1005E000B6F5007F64F5407404D25FEA4E0E6D41AB
:1005F00046EB060642EAC62141EA55514FEAC520BC
:1006000040EA5E504FEACE2EB4F1FD0C88BFBCF537
:10061000E06F1ED8BEF1004F08BF5FEA500E50F1E8
:10062000000041EB045170BD06F0004646EA0101AE
:1006300040EA020081EA0301B4EB5C04C2BFD4EBE0
:100640000C0541EA045170BD41F480114FF0000ED9
:10065000013C00F3AB8014F1360FDEBF002001F047
:10066000004170BDC4F10004203C35DA0C341BDCC1
:1006700004F11404C4F1200500FA05F320FA04F093
:1006800001FA05F240EA020001F0004221F00041C7
:1006900010EBD37021FA04F642EB06015EEA430E3A
:1006A00008BF20EAD37070BDC4F10C04C4F120056A
:1006B00000FA04F320FA05F001FA04F240EA02001D
:1006C00001F0004110EBD37041F100015EEA430EEE
:1006D00008BF20EAD37070BDC4F1200500FA05F20E
:1006E0004EEA020E20FA04F301FA05F243EA02038D
:1006F00021FA04F001F0004121FA04F220EA02009C
:1007000000EBD3705EEA430E08BF20EAD37070BDE1
:1007100094F0000F0FD101F00046400041EB0101C1
:1007200011F4801F08BF013CF7D041EA060195F0A3
:10073000000F18BF704703F00046520043EB03035D
:1007400013F4801F08BF013DF7D043EA060370474A
:1007500094EA0C0F0CEA135518BF95EA0C0F0CD055
:1007600050EA410618BF52EA4306D1D181EA03019B
:1007700001F000414FF0000070BD50EA410606BF95
:100780001046194652EA430619D094EA0C0F02D1DA
:1007900050EA013613D195EA0C0F05D152EA03361F
:1007A0001CBF104619460AD181EA030101F000413D
:1007B00041F0FE4141F470014FF0000070BD41F086
:1007C000FE4141F4780170BD70B54FF0FF0C4CF460
:1007D000E06C1CEA11541DBF1CEA135594EA0C0F7F
:1007E00095EA0C0F00F0A7F8A4EB050481EA030ECC
:1007F00052EA03354FEA013100F088804FEA0333B3
:100800004FF0805545EA131343EA12634FEA022280
:1008100045EA111545EA10654FEA00260EF0004141
:100820009D4208BF964244F1FD0404F5407402D293
:100830005B084FEA3202B61A65EB03055B084FEA24
:1008400032024FF480104FF4002CB6EB020E75EB21
:10085000030E22BFB61A754640EA0C005B084FEA49
:100860003202B6EB020E75EB030E22BFB61A7546C6
:1008700040EA5C005B084FEA3202B6EB020E75EB11
:10088000030E22BFB61A754640EA9C005B084FEA89
:100890003202B6EB020E75EB030E22BFB61A754696
:1008A00040EADC0055EA060E18D04FEA051545EA85
:1008B00016754FEA06164FEAC30343EA52734FEA2E
:1008C000C2025FEA1C1CC0D111F4801F0BD141EAA7
:1008D00000014FF000004FF0004CB6E711F4801F0C
:1008E00004BF01430020B4F1FD0C88BFBCF5E06FEC
:1008F0003FF6AFAEB5EB030C04BFB6EB020C5FEAFC
:10090000500C50F1000041EB045170BD0EF0004E50
:100910004EEA113114EB5C04C2BFD4EB0C0541EA82
:10092000045170BD41F480114FF0000E013C90E67F
:1009300045EA060E8DE60CEA135594EA0C0F08BF43
:1009400095EA0C0F3FF43BAF94EA0C0F0AD150EA42
:1009500001347FF434AF95EA0C0F7FF425AF1046D5
:1009600019462CE795EA0C0F06D152EA03353FF4FD
:10097000FDAE1046194622E750EA410618BF52EA7A
:1009800043067FF4C5AE50EA41047FF40DAF52EA4E
:1009900043057FF4EBAE12E74FF0FF3C06E000BFEB
:1009A0004FF0010C02E000BF4FF0010C4DF804CDF8
:1009B0004FEA410C7FEA6C5C4FEA430C18BF7FEAB8
:1009C0006C5C1BD001B050EA410C0CBF52EA430CE6
:1009D00091EA030F02BF90EA020F0020704710F166
:1009E000000F91EA030F58BF994208BF90422CBFF5
:1009F000D8176FEAE37040F0010070474FEA410CEE
:100A00007FEA6C5C02D150EA013C07D14FEA430C0B
:100A10007FEA6C5CD6D152EA033CD3D05DF8040B7C
:100A2000704700BF8446104662468C4619466346AE
:100A300000E000BF01B5FFF7B7FF002848BF10F185
:100A4000000F01BD4DF808EDFFF7F4FF0CBF0120CA
:100A500000205DF808FB00BF4DF808EDFFF7EAFF46
:100A600034BF012000205DF808FB00BF4DF808ED01
:100A7000FFF7E0FF94BF012000205DF808FB00BFF6
:100A80004DF808EDFFF7CEFF94BF012000205DF880
:100A900008FB00BF4DF808EDFFF7C4FF34BF01208D
:100AA00000205DF808FB00BF4FEA410C7FEA6C5C58
:100AB00002D150EA013C0AD14FEA430C7FEA6C5C58
:100AC00002D152EA033C02D14FF0000070474FF0D0
:100AD000010070474FEA410212F5001215D211D5FC
:100AE0006FF47873B3EB625212D94FEAC12343F02B
:100AF000004343EA505311F0004F23FA02F018BFAD
:100B0000404270474FF00000704750EA013005D175
:100B100011F0004008BF6FF0004070474FF0000038
:100B2000704700BF0348044B834202D0034B03B11C
:100B300018477047BC080020BC08002000000000D7
:100B40000548064B1B1AD90F01EBA301491002D02F
:100B5000034B03B118477047BC080020BC080020B5
:100B60000000000010B5064C237843B9FFF7DAFF08
:100B7000044B13B10448AFF300800123237010BD70
:100B8000C008002000000000F0C1000808B5054BB7
:100B90001BB105490548AFF30080BDE80840FFF7E9
:100BA000CFBF00BF00000000C4080020F0C1000853
:100BB00000B583B00E4B5A6942F001025A615B697D
:100BC00003F001030193019B002211460F2001F065
:100BD000CFF90F2001F0DCF900221146102001F0BE
:100BE000C7F9102001F0D4F903B05DF804FB00BF91
:100BF00000100240F0B589B004AD002404940594BF
:100C0000069407941F4B9A6942F020029A619A69F0
:100C100002F020020192019A9A6942F004029A615C
:100C20009A6902F004020292029A9A6942F008025A
:100C30009A619B6903F008030393039B124E012200
:100C40000421304601F0D3FD30230493059401279D
:100C5000069729460D4801F0B9FC04230493059733
:100C60000694022307932946304601F0AFFC4FF269
:100C700030030493059406972946304601F0A6FCFC
:100C800009B0F0BD00100240000C01400008014016
:100C900072B6FEE710B590B006AC282200212046BF
:100CA00004F068FC002301930293039304930593DB
:100CB000012206924FF4803307930A9202220D928A
:100CC0000E934FF480130F93204601F0ADFD78B9D9
:100CD0000F23019302210291002303934FF48062BA
:100CE0000492059301A801F0D7FF18B910B010BD08
:100CF000FFF7CEFFFFF7CCFF10B590B001F0A8F8DA
:100D0000FFF7C8FFFFF776FFFFF752FF00F090FDF7
:100D100000F01EFE00F090FE00F002FF00F060FF09
:100D200000F078FF4FF4FA6001F0B6F8644C00214F
:100D3000204602F007FC0421204602F003FC0821B3
:100D4000204602F0FFFB0C21204602F0FBFB5D4C2D
:100D50000021204602F0F6FB0421204602F0F2FBBF
:100D60000821204602F0EEFB0C21204602F0EAFBAF
:100D7000554C0021204602F0E5FB0421204602F0FC
:100D8000E1FB0821204602F0DDFB0C21204602F0A9
:100D9000D9FB4E4C0021204602F0D4FB0421204612
:100DA00002F0D0FB0821204602F0CCFB0C212046AB
:100DB00002F0C8FB03F0ECFE04F000F803F0FEFEC6
:100DC00004F082F8642001F067F803F029F9404B41
:100DD00093E803000E90ADF83C100EAC06212046BF
:100DE00003F05AF9012001F057F80621204603F0DC
:100DF00053F9384BDB7803B3642001F04DF8364CDF
:100E00000CAB94E8030083E803000821184603F0C4
:100E100043F90A2001F040F80AAB94E8030083E8A4
:100E200003000821184603F037F90A2001F034F8CE
:100E30002A492B4804F07EF9E2E0254B93E80300B1
:100E40000690ADF81C1006AC0621204603F024F9EC
:100E5000012001F021F80621204603F01DF903F0DE
:100E60008DFE00241B4BDB7893B903F0A7FE194BD2
:100E70001B786BB9174B5B7853B9164B9B783BB912
:100E80000A2001F009F80A344CF250339C42E9D9A7
:100E900003F07EFE03F068FE04E003F08FFE0A20FC
:100EA00000F0FAFF0B4BDB78002BF6D003F070FE5E
:100EB000A2E7012383F3138801F078F8A5E000BFCF
:100EC000B80900207009002028090020E00800204F
:100ED00008C20008B40B002010C200080C0000205B
:100EE00024000020834B1B78002B40F09D80824B18
:100EF0001B78002B40F0AA80804B1B78002B40F021
:100F0000D8807C4B1B78002B40F0E5807A4B1B7817
:100F1000002B40F0E080794B1B78002B40F0DB8009
:100F2000774A06AB92E8030083E8030008211846DD
:100F300003F0B2F8734802F067F803F029FE03F0FB
:100F40003DFF00236B4A13706B4A13706B4A13709A
:100F50006D4A13706D4A13706D4B1B7823B16D4B46
:100F60001B78002B00F08A816B4B1B7823B1694BF7
:100F70001B78002B00F0A681664B1B78002B40F0FD
:100F8000C581664B1B7823B1654B1B78002B00F0A5
:100F9000CF81644B1B7823B1614B1B78002B00F091
:100FA000D7815F4B1B78002B40F0E2815E4B1B78B2
:100FB000002B00F015825D4A03AB07CA03C31A80F9
:100FC0000A2103A803F068F803F0D8FD514B1B7801
:100FD00053B90A2000F060FF03F0F0FD544B1B787A
:100FE000002BF3D003F0D4FD4F4B00221A70514A6E
:100FF00006AB07CA83E807000C21184603F04CF83B
:101000004D4B1B78002B7FF454AF3A4B1B78002BD1
:101010007FF468AF384B1B78002B7FF463AF374BFE
:101020001B78002B98D05DE703F0A8FD04E003F0E7
:10103000C5FD012000F030FF3D4B5B781BB92D4B07
:101040001B78002BF3D103F0A3FD5AE703F096FDC4
:1010500004E003F0B3FD012000F01EFF344B5B7889
:101060001BB9254B1B78002BF3D1322000F014FF65
:1010700004E003F0A3FD012000F00EFF2C4B5B7891
:101080001BB11D4B1B78002BF3D103F081FD03F046
:101090006BFD04E003F092FD012000F0FDFE244B07
:1010A0005B781BB9144B1B78002BF3D103F07EFD4A
:1010B00027E703F063FD04E003F080FD012000F06A
:1010C000EBFE1B4B1B781BB90C4B1B78002BF3D191
:1010D00003F06CFD15E703F02DFE184B93E80300B9
:1010E0000190ADF80810062101A802F0D5FF0024F8
:1010F0002AE000BFB20B0020B30B0020B10B002090
:101100001CC20008E0080020B00B0020AF0B00203C
:10111000AE0B0020AD0B0020AC0B0020AB0B002071
:10112000AA0B0020A90B0020A80B002028C2000851
:10113000B40B002034C20008A50B002044C20008F4
:101140000A2000F0A9FE0A34934B9C420BD8934B23
:101150001B78002BF4D1924B1B78002BF0D1914BD4
:101160001B78002BECD18D4B1B782BB98C4B1B784B
:1011700013B98C4B1B780BB103F020FE874B1B7807
:101180003BB9874B1B7823B9864B1B78002B3FF468
:10119000C7AE854B93E803000390ADF8101006210D
:1011A00003A802F079FF03F0DFFC04E003F006FD82
:1011B0000A2000F071FE7D4B9B785BB9774B1B7862
:1011C000002BF3D1764B1B78002BEFD1754B1B789E
:1011D000002BEBD103F0EAFC714B1B7823B9714B68
:1011E0001B7823B900240AE003F076FDF7E703F04B
:1011F00045FDF7E70A2000F04FFE0A34A4B241F2A1
:1012000087339C420BD8654B1B78002BF2D1644B83
:101210001B78002BEED1634B1B78002BEAD103F037
:1012200013FE03F0A1FC04E003F0C8FC0A2000F068
:1012300033FE5E4BDB785BB9584B1B78002BF3D148
:10124000574B1B78002BEFD1564B1B78002BEBD163
:10125000524B1B783BB9524B1B7823B9514B1B782F
:10126000002B3FF45DAE524A06AB92E8030083E8E0
:1012700003000821184602F00FFF51E603F074FC4A
:101280000A2000F009FE4B4A03AB07CA03C31A80C9
:101290000A2103A802F000FF03F090FC434BDB7827
:1012A000002B3FF469AE444B00221A7003F070FC2F
:1012B000424B06AC0FCB07C423800E2106A802F0D8
:1012C000EBFE59E603F05AFC0A2000F0E5FD3C4A2B
:1012D00003AB07CA03C31A800A2103A802F0DCFE8D
:1012E00003F06CFC314B1B78002B3FF445AE354BC3
:1012F00000221A7003F04CFC334B06AC0FCB07C432
:1013000023800E2106A802F0C7FE35E62F4A06AB61
:1013100007CA83E807000C21184602F0BDFE03F05F
:1013200037FC0A2000F0B8FD294B00221A7028E68D
:101330001D4B93E803000690ADF81C10062106A88B
:1013400002F0AAFE03F056FC0A2000F0A5FD28E6F4
:1013500003F0F0FC0A2000F09FFD1E4B93E8030011
:101360000690ADF81C10062106A802F095FE18E6BE
:10137000194B93E803000690ADF81C10062106A84F
:1013800002F08AFE03F01AFD0A2000F085FD134BDF
:1013900000221A700AE600BF1FBF0200B20B002035
:1013A000B30B0020B10B00204CC20008B40B00208E
:1013B0001CC2000854C20008AE0B002060C2000826
:1013C00070C20008AC0B00207CC200088CC2000870
:1013D000AD0B002044C200089CC20008AA0B0020EC
:1013E000374B1B7853BB374B1B78002B3FF408AEB1
:1013F000354A03AB07CA03C31A800A2103A802F0C7
:101400004BFE03F0BBFB314B1B7853B90A2000F0B5
:1014100043FD03F0D3FB2E4B1B78002BF3D003F0DE
:10142000B7FB284B00221A702A4A06AB07CA83E88A
:1014300007000C21184602F02FFEE1E5224A03AB1B
:1014400007CA03C31A800A2103A802F025FE03F08D
:1014500095FB1E4B1B786BB90A2000F01DFD03F0B5
:10146000ADFB1B4B1B7893B9194B5B78002BF0D06D
:1014700003F08EFB124B00221A70164A06AB07CA05
:1014800083E807000C21184602F006FEB8E503F0D9
:101490007FFB03F069FB4FF47A7000F0FDFC03F072
:1014A0008DFB0B4B5B783BB9094B9B78002BE1D153
:1014B0000A2000F0F1FCF2E703F06AFBDAE700BF74
:1014C000A70B0020A60B002028C20008AD0B0020AF
:1014D000B40B002034C2000882B00E4B9A6942F06F
:1014E00001029A619A6902F001020092009ADA6997
:1014F00042F08052DA61DB6903F080530193019B73
:10150000054A536823F0E06343F00073536002B070
:10151000704700BF0010024000000140FEE7FEE7F8
:10152000FEE7FEE7FEE770477047704708B500F03A
:10153000A1FC08BD08B5024800F042FE08BD00BF8E
:10154000440A002008B5024800F03AFE08BD00BF7A
:10155000000A002008B5024801F074FD08BD00BF74
:10156000E008002008B5034802F03CFB03F0D2FA83
:1015700008BD00BFD00A002008B5024802F032FBC7
:1015800008BD00BF880A00200120704708B504F09C
:1015900071F9162303604FF0FF3008BD08B54FF016
:1015A000FF31FFF7F3FFFEE770B50C461646002546
:1015B00006E0AFF30080214601F8010B01350C462F
:1015C000B542F6DB304670BD70B50C4616460025B8
:1015D00004E014F8010BAFF300800135B542F8DBED
:1015E000304670BD4FF0FF3070474FF400534B60F2
:1015F00000207047012070470020704710B5034657
:101600000C4A0D490D48006840B10C48006803447D
:10161000521A934206D8094A136010BD0748084C75
:101620000460F2E704F026F90C2303604FF0FF306A
:10163000F3E700BF0050002000040000DC08002099
:10164000D80E00207047000000B585B00368214A1D
:1016500093421BD0B3F1804F25D01F4A93422ED026
:101660001E4A93421CD11E4BDA6942F00402DA6131
:10167000DB6903F004030393039B002201211E2076
:1016800000F076FC1E2000F083FC09E0144B9A6900
:1016900042F400629A619B6903F400630093009B2B
:1016A00005B05DF804FB03F50433DA6942F001028A
:1016B000DA61DB6903F001030193019BF0E7084B5A
:1016C000DA6942F00202DA61DB6903F00203029395
:1016D000029BE5E7002C01400004004000080040A8
:1016E0000010024030B58BB0002306930793089397
:1016F00009930368474A93420AD0B3F1804F1CD044
:10170000454A93424AD0454A93426DD00BB030BD12
:10171000434B9A6942F004029A619B6903F0040307
:101720000093009B4FF47063069302230793099381
:1017300006A93C4800F04AFFE8E703F504339A693C
:1017400042F004029A619A6902F004020192019A3D
:101750009A6942F008029A619B6903F008030293B8
:10176000029B0323069302240794099406AD29469D
:101770002C4800F02BFF4FF4406306930794099424
:101780002946294800F022FF284A536823F4407371
:1017900043F0E06343F400735360B7E7204B9A696A
:1017A00042F004029A619A6902F004020392039AD9
:1017B0009A6942F008029A619B6903F00803049356
:1017C000049BC023069302240794099406AD29467E
:1017D000144800F0FBFE032306930794099429465E
:1017E000114800F0F3FE91E70D4B9A6942F00802B0
:1017F0009A619B6903F008030593059B4FF44073BE
:10180000069302230793099306A9074800F0DEFE1A
:101810007CE700BF002C01400004004000080040AD
:101820000010024000080140000C0140000001408F
:1018300010B596B000241294139414941594109437
:10184000119409940A940B940C940D940E940F9493
:101850002022214601A803F08DFE3B483B4B03604C
:101860002323436084606323C36004614461846113
:1018700001F0DAFC00284BD14FF48053129312A9E7
:10188000314801F0D1FD002845D12F4801F0F8FC86
:10189000002843D100231093119310A92A4801F086
:1018A000BBFE00283DD16023099300220A920B92CF
:1018B0000C920D920E920F9209A9234801F03AFD65
:1018C000002831D1042209A91F4801F033FD70BB63
:1018D000082209A91C4801F02DFD58BB0C2209A9BA
:1018E000194801F027FD40BB0023019302930393A5
:1018F000049305934FF400520692089301A91248ED
:1019000001F0C0FEE0B91048FFF7ECFE16B010BDC4
:10191000FFF7BEF9B0E7FFF7BBF9B6E7FFF7B8F995
:10192000B8E7FFF7B5F9BEE7FFF7B2F9CAE7FFF787
:10193000AFF9CDE7FFF7ACF9D0E7FFF7A9F9D3E7A7
:10194000FFF7A6F9DFE700BFB8090020002C01402F
:1019500000B58FB000230A930B930C930D9308935B
:1019600009930193029303930493059306930793BA
:1019700030484FF08042026023224260836063223D
:10198000C2600361836101F04FFC002839D14FF43C
:1019900080530A930AA9274801F046FD002833D155
:1019A000244801F06DFC002831D1002308930993ED
:1019B00008A9204801F030FE60BB6023019300229B
:1019C00002920392059201A91A4801F0B3FC20BBD0
:1019D00004220DEB0201174801F0ACFC00BB082209
:1019E00001A9144801F0A6FCE8B90C2201A911488C
:1019F00001F0A0FCD0B90F48FFF774FE0FB05DF8FE
:101A000004FBFFF745F9C2E7FFF742F9C8E7FFF724
:101A10003FF9CAE7FFF73CF9CFE7FFF739F9D7E716
:101A2000FFF736F9DBE7FFF733F9DEE7FFF730F9C9
:101A3000E1E700BF7009002000B58FB000230A93D2
:101A40000B930C930D9308930993019302930393C3
:101A500004930593069307932F48304A026023228C
:101A6000426083606322C2600361836101F0DCFB3A
:101A7000002839D14FF480530A930AA9264801F06F
:101A8000D3FC002833D1244801F0FAFB002831D1DF
:101A900000230893099308A91F4801F0BDFD60BB0E
:101AA00060230193002202920392059201A91A4831
:101AB00001F040FC20BB04220DEB0201164801F0AE
:101AC00039FC00BB082201A9134801F033FCE8B936
:101AD0000C2201A9104801F02DFCD0B90E48FFF7E7
:101AE00001FE0FB05DF804FBFFF7D2F8C2E7FFF785
:101AF000CFF8C8E7FFF7CCF8CAE7FFF7C9F8CFE798
:101B0000FFF7C6F8D7E7FFF7C3F8DBE7FFF7C0F842
:101B1000DEE7FFF7BDF8E1E72809002000040040F8
:101B200000B58FB000230A930B930C930D93089389
:101B300009930193029303930493059306930793E8
:101B40002548264A02602322426083606322C260E5
:101B50000361836101F068FB58BB4FF480530A9323
:101B60000AA91D4801F060FC30BB1B4801F088FB4E
:101B700028BB00230893099308A9174801F04CFDDE
:101B800000BB602301930023029303930593082273
:101B900001A9114801F0CEFBB8B90C2201A90E48E9
:101BA00001F0C8FBA0B90C48FFF79CFD0FB05DF831
:101BB00004FBFFF76DF8D0E7FFF76AF8D5E7FFF70A
:101BC00067F8D6E7FFF764F8DBE7FFF761F8E4E7CB
:101BD000FFF75EF8E7E700BFE008002000080040DC
:101BE00008B50A480A4B03604FF4E1334360002311
:101BF0008360C36003610C2242618361C36101F0B1
:101C000066FE00B908BDFFF743F8FBE7D00A0020E5
:101C10000038014008B50A480A4B03604FF4E1332D
:101C2000436000238360C36003610C2242618361CF
:101C3000C36101F04CFE00B908BDFFF729F8FBE7CE
:101C4000880A0020004400402DE9F04188B0044695
:101C50000023049305930693079303684C4A934229
:101C600005D04C4A93424ED008B0BDE8F0814A4BB3
:101C70009A6942F480429A619A6902F48042009221
:101C8000009A9A6942F008029A619B6903F008037E
:101C90000193019B4023049302230593032307939D
:101CA0000DF110083D4F4146384600F08FFC80266C
:101CB00004960025059506954146384600F086FCB9
:101CC000374A536843F0E06343F0040353603548F8
:101CD000354B036045608560C6600561456185617F
:101CE000C56100F091F958B92E4BE3635C620022A4
:101CF0000221252000F03CF9252000F049F9B3E746
:101D0000FEF7C6FFF0E7244BDA6942F40032DA61ED
:101D1000DA6902F400320292029A9A6942F00402ED
:101D20009A619B6903F004030393039B04230493C8
:101D3000022305930323079304AF1C4E3946304614
:101D400000F044FC082304930025059506953946C8
:101D5000304600F03BFC1648164B0360456085603A
:101D60008023C360056145618561C56100F04CF960
:101D700058B90F4BE3635C6200220321262000F078
:101D8000F7F8262000F004F96EE7FEF781FFF0E790
:101D9000003801400044004000100240000C0140A7
:101DA00000000140440A00205800024000080140A1
:101DB000000A00206C000240FFF744FC0B480C496D
:101DC0000C4A002302E0D458C4500433C4188C4297
:101DD000F9D3094A094C002301E013600432A242FE
:101DE000FBD303F04DFDFEF787FF70470000002096
:101DF000BC08002084C80008C0080020D80E0020BD
:101E0000FEE7000010B504460E4B1A784FF47A73C3
:101E1000B3FBF2F30C4A1068B0FBF3F000F0CAF821
:101E200068B90F2C01D901200AE0002221464FF0A9
:101E3000FF3000F09DF8054B1C60002000E0012001
:101E400010BD00BF0400002000000020080000209A
:101E500008B5074A136843F010031360032000F02D
:101E600075F80F20FFF7CEFFFFF736FB002008BD07
:101E700000200240034A1168034B1B780B44136097
:101E8000704700BF180B002004000020014B1868A9
:101E9000704700BF180B002038B50446FFF7F6FF67
:101EA0000546B4F1FF3F02D0044B1B781C44FFF7FA
:101EB000EDFF401BA042FAD338BD00BF0400002054
:101EC000002808DB0901C9B200F1604000F561405B
:101ED00080F80013704700F00F000901C9B2014BF0
:101EE0001954704714ED00E000B500F00700C0F190
:101EF000070CBCF1040F28BF4FF0040C031D062B88
:101F00000FD9C31E4FF0FF3E0EFA0CF021EA00017C
:101F100099400EFA03FE22EA0E0241EA02005DF841
:101F200004FB0023EEE70000BFF34F8F0549CA68AA
:101F300002F4E062044B1343CB60BFF34F8F00BF4A
:101F4000FDE700BF00ED00E00400FA05074AD36892
:101F500023F4E0631B041B0C000200F4E060034365
:101F600043F0BF6343F40033D360704700ED00E0FB
:101F700010B50446054BD868C0F30220FFF7B4FF44
:101F800001462046FFF79CFF10BD00BF00ED00E0BA
:101F9000002807DB00F01F02400901239340024A9A
:101FA00042F82030704700BF00E100E008B5FFF7BD
:101FB000BBFF00000138B0F1807F0BD24FF0E0236F
:101FC0005861054AF02182F8231000209861072209
:101FD0001A6170470120704700ED00E030B4012421
:101FE000056CAC40C56B6C60046863604368102B83
:101FF00005D0036899600368DA6030BC70470368F5
:102000009A600368D960F8E750B310B402460168DB
:10201000144B0B441448A0FB03031B099B001364DF
:10202000124BD363022382F8213008686FF30D103E
:10203000536894682343D468234314692343546941
:10204000234394692343D469234303430B60002053
:102050009063012382F8213082F8200010BC704781
:1020600001207047F8FFFDBFCDCCCCCC0000024072
:1020700038B5044690F82000012831D0012084F8BA
:10208000200094F82100012804D0002384F8203097
:10209000022038BD022084F821000020A0632568BA
:1020A000286820F0010028602046FFF797FFE36AC8
:1020B0005BB12268136843F00E0313602268136853
:1020C00043F0010313600020E3E72268136823F064
:1020D000040313602268136843F00A031360EDE7FA
:1020E0000220D6E7034690F82120022A06D00422D7
:1020F0008263002280F820200120704701680A686E
:1021000022F00E020A6001680A6822F001020A60E9
:10211000026CC06B012101FA02F2426083F82110C7
:10212000002083F82000704708B590F82130022B7A
:1021300003D004238363012008BD0268136823F0E1
:102140000E0313600268136823F001031360036831
:10215000194A934214D0143293421FD0143293423E
:102160001ED0143293421ED0143293421ED0143229
:10217000934202D04FF0807203E04FF4801200E0EF
:1021800001220E4B5A60012380F82130002380F891
:102190002030436B6BB198470020CDE71022F0E769
:1021A0004FF48072EDE74FF48052EAE74FF480324B
:1021B000E7E70020C0E700BF08000240000002403F
:1021C00038B5C36B1A6804682568016C04238B401A
:1021D000134235D015F0040F32D0236813F0200FCE
:1021E00003D1236823F0040323600368434A934226
:1021F00014D01432934218D01432934217D01432B0
:10220000934217D01432934217D01432934202D023
:102210004FF0806203E04FF4800200E00422384B6C
:102220005A60C36A03B1984738BD4022F7E74FF4BC
:102230008062F4E74FF48042F1E74FF48022EEE74A
:1022400002238B4013423CD015F0020F39D0236893
:1022500013F0200F06D1236823F00A032360012323
:1022600080F821300368254A934214D014329342F7
:102270001CD0143293421BD0143293421BD0143220
:1022800093421BD01432934202D04FF0007203E00D
:102290004FF4001200E00222194B5A60002380F82C
:1022A0002030836A002BBFD09847BDE72022F3E798
:1022B0004FF40072F0E74FF40052EDE74FF40032B4
:1022C000EAE708238B401342AED015F0080FABD0DD
:1022D000236823F00E032360026CC16B012303FA11
:1022E00002F24A60836380F82130002380F82030B6
:1022F000036B002B98D0984796E700BF0800024078
:1023000000000240044B0022DA61044A136943F0E2
:102310000103136101807047200B00200020024060
:10232000194BDB6813F0100305D0184AD36943F04A
:102330000203D3611023144AD26812F0040F06D0AE
:102340001249CA6942F00102CA6143F004030E4A0D
:10235000D26912F0010F09D00C49CA6942F0040297
:10236000CA610949CA6922F00102CA6140F2011238
:10237000934202D0044AD3607047034AD36923F0E2
:102380000103D361704700BF00200240200B0020F2
:102390000A4B1B6913F0800F0BD0084B084A5A6098
:1023A00002F188325A601B6913F0800F03D10020BC
:1023B0007047002070470120704700BF0020024096
:1023C00023016745034A136943F08003136100202A
:1023D000704700BF0020024038B50446FFF756FDA5
:1023E0000546164BDB6813F0010F0AD0B4F1FF3F2E
:1023F000F7D024B1FFF74AFD401BA042F1D90320DA
:102400001BE00E4BDB6813F0200F02D00B4B202299
:10241000DA600A4BDB6813F0100F0BD1074BDB6956
:1024200013F0010F06D1054BDB6813F0040F01D147
:10243000002002E0FFF774FF012038BD00200240B9
:102440002DE9F8431E46244B1B7E012B41D0044648
:102450000F469046204B01221A764CF25030FFF77F
:10246000BBFF034678BB012C08D0022C03D04FF0F1
:1024700004091C4607E04FF00209FAE74FF0010992
:10248000F7E70134E4B24C451DD22101C1F120022D
:10249000A1F1200328FA01F106FA02F2114326FA0B
:1024A00003F3194389B207EB4400FFF72BFF4CF20B
:1024B0005030FFF791FF094B1D6925F001051D61A3
:1024C00003460028DDD0044A002111761846BDE8F5
:1024D000F8830223FAE700BF200B0020002002400F
:1024E000064B0022DA61064B1A6942F004021A61B7
:1024F0001A6942F040021A61704700BF200B0020A9
:1025000000200240064B0022DA61064B1A6942F0B5
:1025100002021A6158611A6942F040021A6170475A
:10252000200B002000200240264B1B7E012B46D0B2
:1025300070B505460E46234B01221A760368022B1E
:1025400020D04CF25030FFF747FF90BB4FF0FF33E5
:102550003360AC680121EA68AB6803EB8223A342D5
:1025600028D92046FFF7CEFF4CF25030FFF734FF5A
:10257000154A136923F0020313610146B8B904F543
:102580008064E8E74CF25030FFF726FF08B10121E4
:1025900010E00120FFF7A4FF4CF25030FFF71CFFC2
:1025A0000146094A136923F00403136102E0346011
:1025B00000E00121034B00221A76084670BD02217B
:1025C00008467047200B00200020024070B582B002
:1025D0000024A4469EE07C4DAB4214D00CD8A5F557
:1025E0008015AB420FD005F57025AB420BD0A5F599
:1025F0008015AB421FD106E0744DAB4203D005F508
:102600008035AB4217D18B68A3B1012B0DD042614D
:10261000082410E0CC680EE0CC6804340BE0CC68F1
:10262000083408E0CC680C3405E00261082402E0BC
:10263000002400E00424BEF1FF0F37D806464FEA1D
:102640008C0233680F25954023EA050304FA02F251
:10265000134333604B6813F0805F59D05C4B9A6929
:1026600042F001029A619B6903F001030193019B0F
:102670004FEA9C02951C574B53F825600CF003055C
:10268000AD000F23AB4026EA0306534B984214D00B
:1026900003F58063984279D003F58063984277D040
:1026A00003F58063984206D0042307E0061DACF1D1
:1026B00008029200C5E7032300E00023AB40334348
:1026C0000232444D45F822304B6813F4801F61D02C
:1026D000424A936843EA0E0393604B6813F4001F69
:1026E0005ED03E4AD36843EA0E03D3604B6813F4CE
:1026F000003F5BD0394A536843EA0E0353604B688E
:1027000013F4803F58D0354A136843EA0E03136030
:102710000CF1010C0B6833FA0CF253D0012202FACF
:102720000CF203EA020E32EA0303F1D14B68122BDA
:102730003FF651AF122B3FF67EAF01A555F823F0BF
:1027400007260008152600081F2600083126000865
:1027500037260008372600083726000837260008E5
:1027600037260008372600083726000837260008D5
:1027700037260008372600083726000837260008C5
:10278000372600081926000825260008012395E7AA
:10279000022393E7114A936823EA0E0393609CE7B0
:1027A0000E4AD36823EA0E03D3609FE70B4A5368AF
:1027B00023EA0E035360A2E7084A136823EA0E03D4
:1027C0001360A5E702B070BD0000221000003110B8
:1027D00000100240000001400008014000040140D8
:1027E0008368194201D001207047002070470AB168
:1027F00001617047090401617047000082B0084B15
:102800001B68084AA2FB03235B0A00FB03F3019346
:1028100000BF019B5A1E0192002BF9D102B07047F4
:1028200000000020D34D6210002800F0F18170B547
:1028300082B00446036813F0010F2CD0994B5B68FB
:1028400003F00C03042B1DD0964B5B6803F00C03C4
:10285000082B12D06368B3F5803F41D0002B55D1CF
:1028600003F1804303F504331A6822F480321A60BE
:102870001A6822F480221A6037E08A4B5B6813F4EE
:10288000803FE7D0874B1B6813F4003F03D0636899
:10289000002B00F0BF81236813F0020F75D0814B2D
:1028A0005B6813F00C0F5FD07E4B5B6803F00C038A
:1028B000082B54D02369002B00F08A807A4B012228
:1028C0001A60FFF7E3FA0546764B1B6813F0020F18
:1028D00075D1FFF7DBFA401B0228F5D903209EE1F2
:1028E000704A136843F480331360636843B3FFF79F
:1028F000CDFA05466B4B1B6813F4003FCBD1FFF7B5
:10290000C5FA401B6428F5D9032088E1B3F5A02F50
:1029100009D0644B1A6822F480321A601A6822F4D3
:1029200080221A60E1E703F18043A3F53C331A6883
:1029300042F480221A601A6842F480321A60D4E7A6
:10294000FFF7A4FA0546574B1B6813F4003FA2D0CB
:10295000FFF79CFA401B6428F5D903205FE1514B37
:102960005B6813F4803FA5D14E4B1B6813F0020F38
:1029700003D02369012B40F04F814A4A136823F0AA
:10298000F803616943EAC1031360236813F0080F79
:1029900033D0A369002B5CD0434B0122C3F88024C1
:1029A000FFF774FA05463F4B5B6A13F0020F21D123
:1029B000FFF76CFA401B0228F5D903202FE1394AB2
:1029C000136823F0F803616943EAC1031360DCE78D
:1029D000354B00221A60FFF759FA0546314B1B6848
:1029E00013F0020FD1D0FFF751FA401B0228F5D99E
:1029F000032014E10120FFF701FF236813F0040F07
:102A000000F09680274BDB6913F0805F34D1254BB3
:102A1000DA6942F08052DA61DB6903F08053019396
:102A2000019B0125214B1B6813F4807F26D0E368AE
:102A3000012B3DD0002B53D103F1804303F5043328
:102A40001A6A22F001021A621A6A22F004021A6259
:102A500033E0154B0022C3F88024FFF717FA054630
:102A6000104B5B6A13F0020FC7D0FFF70FFA401B41
:102A70000228F5D90320D2E00025D3E70B4A1368DA
:102A800043F480731360FFF701FA0646074B1B6897
:102A900013F4807FCBD1FFF7F9F9801B6428F5D9B7
:102AA0000320BCE0001002400000424200700040E1
:102AB0005F4A136A43F001031362E36833B3FFF71D
:102AC000E5F906465A4B1B6A13F0020F2FD1FFF7A8
:102AD000DDF9801B41F288339842F3D903209EE050
:102AE000052B09D0524B1A6A22F001021A621A6AA7
:102AF00022F004021A62E0E74D4B1A6A42F0040227
:102B00001A621A6A42F001021A62D6E7FFF7BEF9AA
:102B10000646474B1B6A13F0020F08D0FFF7B6F9C1
:102B2000801B41F288339842F3D9032077E0E5B95E
:102B3000E369002B72D03E4A526802F00C02082A68
:102B400056D0022B17D03B4B00221A66FFF79EF996
:102B50000446374B1B6813F0007F47D0FFF796F908
:102B6000001B0228F5D9032059E0314AD36923F02C
:102B70008053D361DCE72F4B00221A66FFF786F9FA
:102B800005462B4B1B6813F0007F06D0FFF77EF93C
:102B9000401B0228F5D9032041E0236AB3F5803FAA
:102BA0001AD023494B6823F47413226A606A0243E3
:102BB00013434B601F4B01221A66FFF767F9044667
:102BC0001B4B1B6813F0007F0ED1FFF75FF9001B52
:102BD0000228F5D9032022E0154A536823F4003374
:102BE000A1680B435360DCE7002018E0002016E0EA
:102BF000012B16D00E4B5B6803F48031226A9142A0
:102C000011D103F47013626A93420ED1002006E0E2
:102C100001207047012002E0012000E0002002B006
:102C200070BD0120FBE70120F9E70120F7E700BFB5
:102C30000010024000004242114B5B6803F00C029E
:102C4000042A18D0082A18D1C3F383420D49885C9E
:102C500013F4803F0BD00A4B5B68C3F340430A4A2E
:102C6000D35C0A4A02FB00F0B0FBF3F07047084B5C
:102C700003FB00F07047054870470648704700BFE7
:102C8000001002408CC5000888C50008001BB70072
:102C900000093D0000127A00002800F0A08070B505
:102CA0000D460446524B1B6803F007038B420BD2C0
:102CB0004F4A136823F007030B431360136803F0B4
:102CC00007038B4240F08D80236813F0020F17D06A
:102CD00013F0040F04D0474A536843F4E063536091
:102CE000236813F0080F04D0424A536843F460533A
:102CF0005360404A536823F0F003A1680B435360CC
:102D0000236813F0010F31D06368012B20D0022B10
:102D100025D0384A126812F0020F64D035494A684B
:102D200022F0030213434B60FFF7B0F80646314B25
:102D30005B6803F00C036268B3EB820F16D0FFF7F9
:102D4000A5F8801B41F288339842F0D9032045E072
:102D5000284A126812F4003FE0D101203EE0254AE3
:102D6000126812F0007FD9D1012037E0204B1B6898
:102D700003F00703AB420AD91D4A136823F0070387
:102D80002B431360136803F00703AB422DD1236874
:102D900013F0040F06D0174A536823F4E063E16888
:102DA0000B435360236813F0080F07D0114A536890
:102DB00023F46053216943EAC1035360FFF73CFFEA
:102DC0000C4B5B68C3F303130B4AD35CD8400B4B2B
:102DD00018600B4B1868FFF715F8002070BD012034
:102DE00070470120FAE70120F8E70120F6E700BF6D
:102DF000002002400010024078C5000800000020BA
:102E000008000020014B1868704700BF0000002038
:102E100008B5FFF7F7FF044B5B68C3F30223034ACF
:102E2000D35CD84008BD00BF0010024070C5000848
:102E300008B5FFF7E7FF044B5B68C3F3C223034AFF
:102E4000D35CD84008BD00BF0010024070C5000828
:102E500030B4026A036A23F00103036245688369A0
:102E600023F073030C681C4322F002028B681343A7
:102E70000B4A904206D0456084614A68426303620F
:102E800030BC704723F00803CA681A4322F00403D9
:102E900025F440754A692A438D691543EBE700BF65
:102EA000002C014030B4036A026A22F4807202628C
:102EB0004468C26922F073020D68154323F400735D
:102EC0008A6843EA02230D4A904206D04460C561F5
:102ED0004A68C263036230BC704723F40063CA6867
:102EE00043EA022323F4806324F440544A6944EA09
:102EF00002148A6944EA0214E8E700BF002C01408A
:102F000030B4036A026A22F4805202624468C269E1
:102F100022F4E6420D6842EA052223F400538D684C
:102F200043EA0533074DA84206D04460C2614A68AF
:102F30000264036230BC704724F480444D6944EA63
:102F40008514F2E7002C014010B4036A046A24F0EF
:102F500001040462846924F0F00C4CEA021223F0AC
:102F60000A030B438261036210BC704710B4036A0A
:102F7000046A24F010040462846924F4704C4CEA5E
:102F8000023223F0A00343EA01138261036210BC02
:102F90007047836823F070030B4343F0070383609B
:102FA0007047000090F83D30012B27D1022380F8B4
:102FB0003D300268D36843F00103D3600368114ACF
:102FC000934210D0B3F1804F0DD0A2F594329342CA
:102FD00009D002F58062934205D01A6842F00102DE
:102FE0001A60002070479A6802F00702062A07D08C
:102FF0001A6842F001021A600020704701207047F1
:1030000000207047002C01400268D36823F00103C0
:10301000D3600368196A41F21112114208D1196A8A
:1030200040F24442114203D11A6822F001021A60B0
:10303000012380F83D30002070477047704770478B
:103040007047704770B504460368DE681D6915F067
:10305000020F10D016F0020F0DD06FF002021A61AD
:103060000123037703689B6913F0030F5ED0FFF71A
:10307000E6FF0023237715F0040F12D016F0040F9B
:103080000FD023686FF004021A61022323772368AC
:103090009B6913F4407F4FD02046FFF7D0FF0023F9
:1030A000237715F0080F12D016F0080F0FD0236801
:1030B0006FF008021A61042323772368DB6913F099
:1030C000030F40D02046FFF7BAFF0023237715F007
:1030D000100F12D016F0100F0FD023686FF01002EF
:1030E0001A61082323772368DB6913F4407F31D00A
:1030F0002046FFF7A4FF0023237715F0010F02D02D
:1031000016F0010F2DD115F0800F02D016F0800FB0
:103110002FD115F0400F02D016F0400F31D115F02D
:10312000200F02D016F0200F33D170BDFFF786FFBD
:103130002046FFF785FF9CE72046FFF77FFF2046EC
:10314000FFF77EFFABE72046FFF778FF2046FFF74B
:1031500077FFBAE72046FFF771FF2046FFF770FFC1
:10316000C9E723686FF001021A61204601F0C8FE2A
:10317000C9E723686FF080021A61204600F0ACFABC
:10318000C7E723686FF040021A612046FFF759FF36
:10319000C5E723686FF020021A61204600F09BFA11
:1031A000C3E7000003681F4A90420AD0B0F1804F85
:1031B00007D0A2F59432904203D002F5806290428B
:1031C00003D123F070034A681343164A90420AD091
:1031D000B0F1804F07D0A2F59432904203D002F5AF
:1031E0008062904203D123F44073CA68134323F0F2
:1031F00080034A69134303608B68C3620B68836270
:10320000084B98420AD001234361036913F0010F70
:1032100003D0036923F00103036170470B69036363
:10322000F1E700BF002C014040B310B5044690F810
:103230003D30F3B1022384F83D30214651F8040BB0
:10324000FFF7B0FF012384F8463084F83E3084F85D
:103250003F3084F8403084F8413084F8423084F8BC
:10326000433084F8443084F8453084F83D30002001
:1032700010BD80F83C30FEF7E7F9DBE7012070472E
:1032800040B310B5044690F83D30F3B1022384F802
:103290003D30214651F8040BFFF784FF012384F8E9
:1032A000463084F83E3084F83F3084F8403084F86B
:1032B000413084F8423084F8433084F8443084F854
:1032C000453084F83D30002010BD80F83C30FFF7D9
:1032D000B4FEDBE70120704730B4036A026A22F0D3
:1032E000100202624468826922F4E6420D6842EAF2
:1032F000052223F020038D6843EA05130C4DA842F4
:1033000006D0446082614A688263036230BC7047C1
:1033100023F08003CD6843EA051323F0400324F42F
:1033200040644D6944EA85048D6944EA8504E8E710
:10333000002C014038B590F83C30012B66D0044693
:103340000D46012380F83C300C2A5AD8DFE802F001
:10335000075959591B59595930595959440000684E
:10336000FFF776FD2268936943F0080393612268B2
:10337000936923F0040393612268936929690B43DD
:10338000936100203EE00068FFF7A6FF2268936982
:1033900043F4006393612268936923F4806393612B
:1033A00022689369296943EA01239361002029E097
:1033B0000068FFF777FD2268D36943F00803D36103
:1033C0002268D36923F00403D3612268D369296991
:1033D0000B43D361002015E00068FFF791FD2268E0
:1033E000D36943F40063D3612268D36923F4806313
:1033F000D3612268D369296943EA0123D36100209C
:1034000000E00120002384F83C3038BD0220FCE7B6
:1034100010B4846824F47F4C42EA03220A4342EA4F
:103420000C02826010BC704790F83C30012B78D0C1
:1034300010B50446012380F83C30022380F83D306B
:103440000268936823F47F4323F0770393600B684B
:10345000602B4CD023D8402B54D011D8202B03D034
:103460000AD80BB1102B05D119462068FFF791FD42
:10347000002028E0012026E0302BF5D0012022E0BA
:10348000502B0AD1CA6849680068FFF75DFD5021DA
:103490002068FFF77EFD002015E0012013E0B3F562
:1034A000805F3AD0B3F5005F14D0702B37D1CB6872
:1034B0004A6889680068FFF7ABFF2268936843F0A9
:1034C000770393600020012384F83D30002384F8C3
:1034D0003C3010BDCB684A6889680068FFF798FFE8
:1034E0002268936843F4804393600020EBE7CA6846
:1034F00049680068FFF73AFD60212068FFF749FD41
:103500000020E0E7CA6849680068FFF71DFD402118
:103510002068FFF73EFD0020D5E70020D3E701201B
:10352000D1E70220704701F01F014FF0010C0CFAA7
:1035300001FC036A23EA0C030362036A8A40134313
:103540000362704710B50446084649BB94F83E3004
:10355000013B18BF0123002B58D1002836D102238C
:1035600084F83E30012201462068FFF7DCFF236823
:10357000284A93423AD02368264A93423BD0B3F17B
:10358000804F38D0A2F59432934234D002F5806255
:10359000934230D01A6842F001021A60002036E0EF
:1035A000042907D008290BD094F84130013B18BFFB
:1035B0000123D0E794F83F30013B18BF0123CAE74D
:1035C00094F84030013B18BF0123C4E7042805D01C
:1035D000082807D0022384F84130C3E7022384F887
:1035E0003F30BFE7022384F84030BBE75A6C42F417
:1035F00000425A64BFE79A6802F00702062A07D021
:103600001A6842F001021A60002000E0012010BD9B
:103610000020FCE7002C014090F83C20012A2CD02F
:1036200010B40346012280F83C20022280F83D209D
:1036300002685068946820F0700C086840EA0C003A
:1036400050601A680E4882420AD0B2F1804F07D00B
:10365000A0F59430824203D000F58060824204D10C
:1036600024F08004496821439160012283F83D20C1
:10367000002083F83C0010BC70470220704700BF58
:10368000002C0140024690F83C30012B21D0012350
:1036900080F83C30CB6823F440738868034323F4FC
:1036A00080634868034323F400630868034323F4FA
:1036B00080530869034323F400534869034323F408
:1036C0008043C9690B4311684B64002082F83C00B9
:1036D00070470220704770477047026802F10C0380
:1036E00053E8003F23F0C0030C3242E800310029C8
:1036F000F3D1202380F841307047026802F10C03B7
:1037000053E8003F23F490730C3242E80031002963
:10371000F3D1026802F1140353E8003F23F00103E0
:10372000143242E800310029F3D1036B012B05D09C
:10373000202380F84230002303637047026802F1BF
:103740000C0353E8003F23F010030C3242E8003131
:103750000029F3D1ECE790F84130212B01D0022071
:1037600070478368B3F5805F17D0036A5A1C026202
:103770001A7803685A60C38C9BB2013B9BB2C38426
:103780004BB90268D36823F08003D3600268D36822
:1037900043F04003D360002070470369002BE4D15D
:1037A000036A1B880268C3F308035360036A023389
:1037B0000362E0E710B504460268136923F440533E
:1037C000C1680B43136183680269134342691A435A
:1037D0000168CB6823F4B05323F00C031343CB6090
:1037E0000268536923F4407381690B435361026893
:1037F000134B9A4220D0FFF70BFB024602EB8202EA
:1038000002EB820263689B00B2FBF3F20D48A0FB5F
:1038100002314909642303FB11231B013233A0FB4E
:1038200003035B0903F0F00202EB011203F00F0344
:10383000216813448B6010BDFFF7FAFA0246DDE7FA
:10384000003801401F85EB512DE9F04383B0054658
:103850000E4617469946DDF828802B681C6836EA24
:1038600004040CBF01240024BC4228D1B8F1FF3F5E
:10387000F3D0FEF70BFBA0EB0900404523D8B8F1CD
:10388000000F22D02B68DA6812F0040FE5D0802EEA
:10389000E3D0402EE1D01A6812F0080FDDD00024EA
:1038A00001941A6801925B680193019B2846FFF717
:1038B00024FF08236B6485F84040012000E00020CD
:1038C00003B0BDE8F0830320FAE70320F8E760B314
:1038D00010B5044690F8413013B3242384F84130E6
:1038E0002268D36823F40053D3602046FFF762FFB9
:1038F0002268136923F4904313612268536923F00B
:103900002A0353612268D36843F40053D360002034
:103910006064202384F8413084F84230606310BD35
:1039200080F84030FEF790F9D7E7012070472DE985
:10393000F04182B01E4690F84130202B56D104460B
:103940000D469046002955D00AB901204FE00023CA
:103950004364212380F84130FEF798FA0746A4F823
:103960002480A4F82680A368B3F5805F02D04FF0CE
:10397000000814E023692BB34FF000080FE0202368
:1039800084F84130032032E038F8023B2268C3F368
:1039900008035360E28C92B2013A92B2E284E38C63
:1039A0009BB293B100963B46002280212046FFF750
:1039B0004BFF0028E3D1002DE6D015F8012B23683A
:1039C0005A60E7E7A8460025E9E700963B46002253
:1039D00040212046FFF738FF18B9202384F84130F2
:1039E00005E0202384F84130032000E0022002B0EB
:1039F000BDE8F0810120FAE710B5044603685B6971
:103A000090F84120212A09D023685B6903F0400324
:103A100094F84220222A19D0002010BD03F0800320
:103A2000002BF1D0226802F1140353E8003F23F089
:103A30008003143242E800310029F3D1A06B08B1B1
:103A4000FEF750FB2046FFF748FEDDE7002BE3D0F2
:103A5000226802F1140353E8003F23F040031432BC
:103A600042E800310029F3D1E06B08B1FEF73AFBE0
:103A70002046FFF742FECFE7704708B50168CA68E5
:103A800022F04002CA60202280F84120FFF7F4FFB4
:103A9000002008BD70477047704710B5446A23681E
:103AA0005B6994F84120212A0FD023685B6903F0F9
:103AB000400394F84220222A11D0636C43F0100393
:103AC00063642046FFF7E8FF10BD03F08003002B7E
:103AD000EBD00023E3842046FFF7FFFDE5E7002B52
:103AE000EBD00023E3852046FFF707FEE5E708B5A6
:103AF000406A0023C385C384FFF7CEFF08BD70472B
:103B000090F84230222B69D18368B3F5805F4FD0A3
:103B1000826AB3F5805F04D0002B56D10369002B75
:103B200053D103685B681370836A01338362C38D6A
:103B30009BB2013B9BB2C385002B51D100B583B032
:103B40000268D36823F02003D3600268D36823F4AB
:103B50008073D3600268536923F00103536120230B
:103B600080F8423000234363036B012B33D10023E1
:103B70000363026802F10C0353E8003F23F01003D3
:103B80000C3242E800310029F3D103681A6812F0C0
:103B9000100F06D0002201921A6801925B6801930F
:103BA000019B818DFFF7ABFF002003B05DF804FBA4
:103BB0000269002AACD1826A03685B68C3F3080318
:103BC0001380836A02338362B1E703685B6803F0A2
:103BD0007F031370A8E7FFF75DFFE5E7022070475A
:103BE0000020704710B582B0044602681368D068A0
:103BF000516913F00F0F09D113F0200F0CD010F002
:103C0000200F09D02046FFF77BFF16E011F00101DD
:103C100015D110F4907F12D1216B012979D013F0C6
:103C2000800F03D010F0800F40F0138113F0400F8D
:103C300003D010F0400F40F0108102B010BD13F01F
:103C4000010F06D010F4807F03D0626C42F00102B5
:103C5000626413F0040F04D019B1626C42F00202E6
:103C6000626413F0020F04D019B1626C42F00402D6
:103C7000626413F0080F07D010F0200F00D119B1C3
:103C8000626C42F008026264626C002AD5D013F0C4
:103C9000200F02D010F0200F29D123685B6903F0B8
:103CA0004003626C12F0080F00D163B32046FFF7A7
:103CB00024FD23685B6913F0400F20D0226802F1D5
:103CC000140353E8003F23F04003143242E800316C
:103CD0000029F3D1E36B73B1624A5A63E06BFEF7DC
:103CE00023FA0028A9D0E06B436B9847A5E720464C
:103CF000FFF706FFD1E72046FFF7CEFE9DE72046FF
:103D0000FFF7CAFE99E72046FFF7C6FE002363646B
:103D100093E713F0100F82D010F0100F3FF47FAF35
:103D2000002301931368019353680193019B536926
:103D300013F0400F51D0E26B13685B689BB2002B0D
:103D40003FF47BAFA18D99427FF677AFE38593690E
:103D5000202B37D0226802F10C0353E8003F23F4F4
:103D600080730C3242E800310029F3D1226802F15D
:103D7000140353E8003F23F00103143242E80031FA
:103D80000029F3D1226802F1140353E8003F23F025
:103D90004003143242E800310029F3D1202384F893
:103DA000423000232363226802F10C0353E8003FF2
:103DB00023F010030C3242E800310029F3D1E06B0C
:103DC000FEF790F902236363A18DE38D9BB2C91ABC
:103DD00089B22046FFF793FE2FE7A18DE38D9BB2BA
:103DE000C91A89B2E38D9BB2002B3FF426AF00299C
:103DF0003FF423AF226802F10C0353E8003F23F4A1
:103E000090730C3242E800300028F3D1226802F1AE
:103E1000140353E8003F23F00103143242E800305A
:103E20000028F3D1202384F8423000232363226842
:103E300002F10C0353E8003F23F010030C3242E878
:103E400000300028F3D1022363632046FFF757FEBA
:103E5000F3E62046FFF77FFCEFE62046FFF70DFE76
:103E6000EBE600BFEF3A000808B5406A0123436360
:103E7000036B012B02D0FFF70EFE08BD818D4908B0
:103E8000FFF73DFEF9E708B50346406A1B681B686B
:103E900013F0200F2BD10023C385026802F10C031D
:103EA00053E8003F23F480730C3242E800310029CC
:103EB000F3D1026802F1140353E8003F23F0010339
:103EC000143242E800310029F3D1026802F11403F0
:103ED00053E8003F23F04003143242E80031002948
:103EE000F3D1202380F84230036B012B07D000234D
:103EF0004363036B012B0FD0FFF7CCFD08BD0268B5
:103F000002F10C0353E8003F23F010030C3242E8A7
:103F100000310029F3D1EAE7818DFFF7F0FDEDE7ED
:103F200030B583B00446134681628285002545641E
:103F3000222280F84220C26B1F489062E26B1F4829
:103F4000D062E26B1E481063E26B556320680A463C
:103F5000011DE06BFEF78CF8019523681A68019249
:103F60005B680193019B23695BB1226802F10C033A
:103F700053E8003F43F480730C3242E800310029DB
:103F8000F3D1226802F1140353E8003F43F0010328
:103F9000143242E800310029F3D1226802F11403FF
:103FA00053E8003F43F04003143242E80031002957
:103FB000F3D1002003B030BD873E0008693E000801
:103FC0009B3A000808B590F84230202B08D149B13F
:103FD0000AB9012008BD00230363FFF7A1FFF9E739
:103FE0000220F7E70120F5E738B50D463D2101F045
:103FF0000FFB88B10949013001F0AEFB002458B134
:10400000052C09DC01F0AEF845F824000349002036
:1040100001F0A2FB0134F2E738BD00BFA4C20008E2
:1040200008B505480268D36843F01003D3606422E2
:104030000249FFF7C7FF08BDD00A0020400B00204F
:1040400030B585B001AD114B93E803000190ADF898
:104050000810090C8DF80A10284601F041FC0C4CA0
:10406000642382B229462046FFF761FC094B1B6896
:10407000ADF800301B0C8DF8023064230322694632
:104080002046FFF754FC05B030BD00BFA8C20008B1
:10409000D00A0020B0C20008F0B585B006460F4631
:1040A00001AC194A234607CA03C31A70204601F01F
:1040B00017FC164D4FF47A7382B221462846FFF75B
:1040C00036FC4FF47A733A4631462846FFF72FFC08
:1040D0002223ADF80430204601F002FC642382B2B2
:1040E00021462846FFF723FC094B1B68ADF800303A
:1040F0001B0C8DF802306423032269462846FFF723
:1041000016FC05B0F0BD00BFB4C20008D00A002004
:10411000B0C2000870B592B0434A516841F2707362
:10412000591AADF83C10D168591AADF83E105169D2
:10413000591AADF840101169591AADF8421091683A
:10414000591AADF8441012689B1AADF8463002AC0B
:10415000364A3749204601F0A3F9204601F0C0FB5A
:10416000344D642382B221462846FFF7E0FB324BF0
:104170001B68ADF804301B0C8DF806306423032255
:1041800001A92846FFF7D3FB002422E012AB03EB82
:10419000440302AD33F80C3C22462849284601F07E
:1041A0007FF9284601F09CFB224E642382B2294607
:1041B0003046FFF7BCFB204B1B68ADF800301B0CF2
:1041C0008DF802306423032269463046FFF7AFFBC7
:1041D0000134052CDADD002422E012AB03EB4403AA
:1041E00002AD33F80C3C22461549284601F058F937
:1041F000284601F075FB0F4E642382B229463046F3
:10420000FFF795FB0C4B1B68ADF800301B0C8DF8CD
:1042100002306423032269463046FFF788FB0134ED
:10422000052CDADD12B070BD0C000020C0C2000801
:10423000C8C20008D00A0020B0C20008D4C20008DA
:10424000E0C2000870B592B0434A516841F2707301
:10425000591AADF83C10D168591AADF83E105169A1
:10426000591AADF840101169591AADF84210916809
:10427000591AADF8441012689B1AADF8463002ACDA
:10428000364A3749204601F00BF9204601F028FB59
:10429000344D642382B221462846FFF748FB324B57
:1042A0001B68ADF804301B0C8DF806306423032224
:1042B00001A92846FFF73BFB002422E012AB03EBE9
:1042C000440302AD33F80C3C22462849284601F04D
:1042D000E7F8284601F004FB224E642382B2294607
:1042E0003046FFF724FB204B1B68ADF800301B0C59
:1042F0008DF802306423032269463046FFF717FB2E
:104300000134052CDADD002422E012AB03EB440378
:1043100002AD33F80C3C22461549284601F0C0F89E
:10432000284601F0DDFA0F4E642382B2294630465A
:10433000FFF7FDFA0C4B1B68ADF800301B0C8DF835
:1043400002306423032269463046FFF7F0FA013455
:10435000052CDADD12B070BD24000020ECC200088C
:10436000C8C20008D00A0020B0C20008D4C20008A9
:10437000E0C2000830B58BB004460422954901F034
:10438000AFF9D8B103229449204601F0A9F90028D9
:1043900042D002229149204601F0A2F9002873D1AF
:1043A0008F4B1B7833B98F4B1B781BB98E4B1B7807
:1043B000002B5ED08D4B01221A7017E000F084FDB7
:1043C000874B1B782BB9884B1B7813B9854B1B780F
:1043D00073B104AC864D0FCD0FC495E8030044F8CB
:1043E000040B2180162104A8FFF756FE0BB030BD48
:1043F000804B5B7813B9FFF723FEF7E77E4A04ABE7
:1044000092E8030083E8030008211846FFF744FE02
:10441000734B01221A70E9E700F056FD704B1B78D0
:104420002BB9714B1B7813B96E4B1B786BB104AC75
:104430006F4D0FCD0FC495E8030044F8040B2180A5
:10444000162104A8FFF728FED0E76A4B5B7813B962
:10445000FFF7F6FDCAE7684A04AB92E8030083E879
:10446000030008211846FFF717FE5F4B01221A7060
:10447000BCE7624A04AB92E8030083E8030008212A
:104480001846FFF709FEB1E702225D49204601F018
:1044900027F9B8B9524B1B782BB9524B1B7813B97B
:1044A000514B1B781BB1574B01221A709EE7534AA0
:1044B00004AB92E8030083E8030008211846FFF7E5
:1044C000EBFD93E702225049204601F009F900284C
:1044D0008CD002224D49204601F002F940B94C4BE4
:1044E0001B7813B1FFF7AEFE80E7FFF713FE7DE701
:1044F00003224849204601F0F3F828B10222464938
:10450000204601F0EDF808BB0023354A1370354A08
:104510001370354A13703B4A1370344A13703F4A84
:1045200013703F4A13703F4A13703F4A13703F4A5B
:1045300013703F4A13703F4A13703F4A13703F4A4B
:10454000137000F081FC00F031FB4FE702223C4980
:10455000204601F0C5F8B0B102223A49204601F0E8
:10456000BFF800287CD003223749204601F0B8F874
:10457000002840F0A5800023194A1370194A1370CF
:10458000194A137032E700F09FFC1A4B5B78B3B105
:10459000154B1B782BB9124B1B7813B9114B1B7899
:1045A00083B104AC124D0FCD0FC495E8030044F85D
:1045B000040B2180162104A8FFF76EFD16E7FFF714
:1045C0003FFD13E7174B1B78002B3FD1134B012204
:1045D0001A700BE7F4C20008FCC2000800C3000810
:1045E000B30B0020B20B0020B10B0020AF0B00205A
:1045F0005CC30008B80B002074C3000880C3000827
:1046000004C30008B00B002008C300080CC3000856
:10461000A40B002010C3000814C30008AE0B002038
:10462000AD0B0020AC0B0020AB0B0020AA0B002030
:10463000A90B0020A80B0020A70B0020A60B002030
:1046400018C300081CC3000820C300088D4B04AC2D
:104650000FCB07C423800E2104A8FFF71DFDC5E67C
:1046600000F032FC884B5B78B3B1884B1B782BB9D8
:10467000874B1B7813B9874B1B7883B104AC864DED
:104680000FCD0FC495E8030044F8040B21801621D8
:1046900004A8FFF701FDA9E6FFF7D2FCA6E67F4BD1
:1046A0001B781BB97E4B01221A709FE6754B04AC38
:1046B0000FCB07C423800E2104A8FFF7EDFC95E67D
:1046C00002227849204601F00BF8F8B96F4B1B78AD
:1046D0002BB96F4B1B7813B96E4B1B786BB104ACC5
:1046E0006D4D0FCD0FC495E8030044F8040B2180F5
:1046F000162104A8FFF7D0FC78E66B4B01221A7054
:104700000023664A1370664A13706FE604226749F5
:10471000204600F0E5FFE8B104226549204600F09C
:10472000DFFF002839D003226249204600F0D8FF7D
:10473000002855D003226049204600F0D1FF002810
:1047400040F092805D4B1B78002B6CD15C4B0122BA
:104750001A704BE600F0B8FB4B4B5B78B3B14B4B98
:104760001B782BB94A4B1B7813B94A4B1B7883B182
:1047700004AC494D0FCD0FC495E8030044F8040B79
:104780002180162104A8FFF787FC2FE6FFF758FCCD
:104790002CE64C4B01221A7028E600F095FB3A4BB0
:1047A0005B78B3B1394B1B782BB9394B1B7813B9F4
:1047B000384B1B7883B104AC374D0FCD0FC495E84F
:1047C000030044F8040B2180162104A8FFF764FCC1
:1047D0000CE6FFF735FC09E63B4B01221A7005E6B3
:1047E00000F072FB284B5B78B3B1284B1B782BB9D8
:1047F000274B1B7813B9274B1B7883B104AC264D8C
:104800000FCD0FC495E8030044F8040B2180162156
:1048100004A8FFF741FCE9E5FFF712FCE6E52B4BA6
:1048200001221A70E2E5194B1B782BB9184B1B7843
:1048300013B9184B1B786BB104AC174D0FCD0FC4D7
:1048400095E8030044F8040B2180162104A8FFF723
:1048500023FCCBE51E4A04AB07CA83E807000C2102
:104860001846FFF719FCC1E503221A49204600F05B
:1048700037FF002851D1124B1B786BBB0F4B012225
:104880001A70B3E58CC30008B80B0020B10B0020F0
:10489000B30B0020B20B00205CC30008AE0B00205D
:1048A000AC0B002024C30008AD0B002028C3000877
:1048B00030C3000838C300083CC30008AB0B00201D
:1048C000A90B0020A80B0020A70B0020A60B00209E
:1048D0009CC3000840C30008734B1B782BB9734B73
:1048E0001B7813B9724B1B786BB104AC714D0FCDB3
:1048F0000FC495E8030044F8040B2180162104A896
:10490000FFF7CAFB72E56C4A04AB07CA83E80700ED
:104910000C211846FFF7C0FB68E5032267492046D3
:1049200000F0DEFEF8B9604B1B782BB95F4B1B78AB
:1049300013B95F4B1B786BB104AC5E4D0FCD0FC448
:1049400095E8030044F8040B2180162104A8FFF722
:10495000A3FB4BE55A4B01221A700023594A1370EE
:10496000594A137042E503225849204600F0B8FE28
:1049700030B102225649204600F0B2FE002832D162
:10498000544A04AB92E8030083E803000821184668
:10499000FFF782FB012484F31388FDF707FB4E4BDE
:1049A0001C700023414A1370414A13703E4A137031
:1049B0004A4A13704A4A13704A4A13704A4A13709B
:1049C0004A4A1370404A13703D4A13703D4A1370AF
:1049D000474A1370474A1370474A137000F034FA7D
:1049E00000F0E4F802E503224449204600F078FE96
:1049F00088B104224249204600F072FE00287FF46C
:104A0000F5AC404B1B78002B48D0FFF783FB3D4BA8
:104A100000221A70EAE404A92046FFF7E5FA394BB0
:104A20001B782BBB41F27073099A991A364A1160B0
:104A30000499591A51600899591A91600599591A9F
:104A4000D1600799591A116106995B1A53612E4971
:104A50002E4800F033FB00287FF4C8AC2C4A01AB91
:104A600007CA83E807000C211846FFF715FBBDE4D1
:104A700041F27073099A991A244A11600499591ADB
:104A800051600899591A91600599591AD16007998E
:104A9000591A116106995B1A5361D8E7FFF7D2FBE7
:104AA000184B01221A70A1E4B10B0020B30B0020B7
:104AB000B20B00205CC300089CC3000844C300087C
:104AC000AA0B0020A90B0020AB0B002048C3000854
:104AD0004CC30008ACC30008A50B0020B00B00209D
:104AE000AF0B0020AE0B0020AD0B0020AC0B002064
:104AF000A80B0020A70B0020A60B002050C3000825
:104B000054C30008A40B00200C0000202400002047
:104B1000B8C30008124B1B681B6813F0100F00D1BC
:104B20007047F0B583B00E4C2046FEF765FF0027B6
:104B3000019723681A6801925B680193019B094DF4
:104B40002846FFF717FC642632463946284600F00F
:104B500011FD324629462046FFF734FA03B0F0BD76
:104B6000D00A0020400B0020034B1B68DA6A5A630E
:104B700000229A63704700BFB8090020034B1B68EE
:104B8000DA6A9A6300225A63704700BFB8090020AE
:104B900008B5054B1B68DA6A5A639A634FF4FA60EA
:104BA000FDF77AF908BD00BFB8090020024B1B6869
:104BB000DA6A5A639A637047B809002010B5002476
:104BC00003E00A4B00221A550134032C0DDC084B7C
:104BD00003EBC402918853F83400FDF701FE00286E
:104BE000EFD0024B01221A55EEE710BDB40B0020A6
:104BF0009CC50008002314E0042A03D0082A03D02F
:104C000008641BE0886319E0C86317E0042A22D017
:104C1000082A27D0174A52F833201268002111645D
:104C20000133052B25DC144A52F833100968C86A91
:104C300002EBC3025268002ADED148630D4A02EB40
:104C4000C3025268002AE1D10A4A52F8332012689E
:104C500000215163E4E7074A52F83320126800212B
:104C60009163DDE7034A52F8332012680021D163D3
:104C7000D6E77047CCC50008FCC5000808B50F4B47
:104C800001221A7000230E4A13700E4A13600E4858
:104C9000FEF788F905E00A4B1B7873B90A20FDF787
:104CA000FBF80A4B1B78002BF5D1094B1B78002B26
:104CB000F1D1084B1B78002BEDD108BDBB0B0020B8
:104CC000C00B0020BC0B0020E0080020B30B00202C
:104CD000B20B0020B10B002008B50F4B01221A7057
:104CE00000230E4A13700E4A13600E48FEF75AF95D
:104CF00005E00A4B1B7873B90A20FDF7CDF80A4B83
:104D00001B78002BF5D1094B1B78002BF1D1084BF8
:104D10001B78002BEDD108BDBA0B0020C00B002082
:104D2000BC0B0020E0080020B30B0020B20B0020D9
:104D3000B10B0020002314E0042A03D0082A03D07A
:104D400008641BE0886319E0C86317E0042A22D0D6
:104D5000082A27D0174A52F833201268002111641C
:104D60000133052B25DC144A52F833100968C86A50
:104D700002EBC3025268002ADED148630D4A02EBFF
:104D8000C3025268002AE1D10A4A52F8332012685D
:104D900000215163E4E7074A52F8332012680021EA
:104DA0009163DDE7034A52F8332012680021D16392
:104DB000D6E77047FCC50008CCC5000808B500233D
:104DC00013E0042A03D0082A03D008641AE0886399
:104DD00018E0C86316E0042A20D0082A24D0184A14
:104DE00052F83320126810640133052B22DC154A77
:104DF00052F833100968C86A02EBC3025268002AED
:104E0000DFD148630E4A02EBC3025268002AE2D1A6
:104E10000B4A52F8332012685063E5E7084A52F80B
:104E2000332012689063DFE7054A52F83320126896
:104E3000D063D9E74FF47A70FDF72EF808BD00BFB4
:104E4000FCC50008CCC50008002313E0042A03D0E9
:104E5000082A03D008641AE0886318E0C86316E0E3
:104E6000042A20D0082A24D0154A52F83320126888
:104E700010640133052B22DC124A52F83310096802
:104E8000C86A02EBC3025268002ADFD148630C4AA9
:104E900002EBC3025268002AE2D1094A52F83320D9
:104EA00012685063E5E7064A52F8332012689063AF
:104EB000DFE7034A52F833201268D063D9E770471E
:104EC000FCC50008CCC5000810B5002403E00A4B5F
:104ED00000221A550134012C0DDC084B03EBC402EF
:104EE000918853F83400FDF77BFC0028EFD0024B8B
:104EF00001221A55EEE710BDB80B0020BCC5000812
:104F000008B50268624B9A4200D008BD614B1B781D
:104F1000002B4BD1604B1B78002BF6D0002372E0A6
:104F2000042A04D0082A05D000220A6426E00022C0
:104F30008A6323E00022CA6320E0042A2AD0082AD8
:104F40002ED0564A52F83320126810640133052BD4
:104F50002EDC534A52F8232002EB820251490968A1
:104F6000B1EB820FF2D1504A52F833100968C86A87
:104F700002EBC3025268002AD2D14A63474A02EBCD
:104F8000C3025268002AD8D1444A52F8332012682A
:104F90005063DBE7414A52F8332012689063D5E74B
:104FA0003E4A52F833201268D063CFE70023CEE7A1
:104FB0003C4B1A6801321A601A683C4B9A42A4D9D9
:104FC0000023344A13703A4A01211170354A1360A4
:104FD0003848FEF719F898E7042A04D0082A05D0C3
:104FE00000220A6426E000228A6323E00022CA63CA
:104FF00020E0042A2AD0082A2ED0284A52F833204A
:10500000126810640133052B2CDC2B4A52F8232044
:1050100002EB820223490968B1EB820FF2D1224AE6
:1050200052F833100968C86A02EBC3025268002ABA
:10503000D2D14A63194A02EBC3025268002AD8D17E
:10504000164A52F8332012685063DBE7134A52F8CD
:10505000332012689063D5E7104A52F83320126863
:10506000D063CFE70F4B1A6801321A601A680F4BF2
:105070009A427FF64AAF0023074A13700C4A012177
:105080001170084A13600B48FDF7BEFF3DE700BFF3
:1050900000080040BB0B0020BA0B0020FCC5000834
:1050A00024000020BC0B0020CCC5000824D5010042
:1050B000C00B0020E00800200C00002070B586B076
:1050C00005460E46FDF764F900240294174B04933D
:1050D0000123059301A902A8FDF726FA052C0DD896
:1050E00004F1007101F5705155F824200023890066
:1050F0000220FDF7A5F9A8B90134EFE70024052C3B
:105100000BD80B49214456F82420002389000220A3
:10511000FDF796F940B90134F1E7FDF753F90020A6
:1051200006B070BD0120FBE70120F9E700F00008A0
:10513000063C000200230EE003F1007202F57052FB
:105140009200126840F82320054A1A44920012681F
:1051500041F823200133052BEED90020704700BF12
:10516000063C00020A22002100F09CB8242B2DE905
:10517000F84F42D8012B40D01F468E468046484803
:1051800075461EF801BB10F80B4014F00804F7D167
:10519000BBF12D0F6FD06FF00049BBF12B0F04BF97
:1051A0009EF800B005F1020E7BBBBBF1300F4CD076
:1051B0000A273B460025B9FBF7F6284607FB169A57
:1051C00005E03BD0012507FB00C01EF801BBABF199
:1051D000300CBCF1090F06D9ABF1410CBCF1190F31
:1051E0001AD8ABF1370C63451FDDB5F1FF3FECD0AA
:1051F0008642E6D24FF0FF35E7E700F03BFB162290
:10520000034600201A60BDE8F88F102BD2D1BBF105
:10521000300F23D01F46CDE7ABF1610CBCF1190F65
:1052200003D8ABF1570C6345DFDC6B1C2BD054B9B2
:10523000002AE8D085BB1160BDE8F88FE245C1DAED
:105240004FF0FF35C1E74042F2E79EF8003003F02F
:10525000DF03582B08D008273B46ABE79EF8000039
:1052600000F0DF005828D5D110279EF801B03B464A
:105270000EF1020E9EE79EF800B04FF000490124A7
:1052800005F1020E90E72223C8F8003032B10EF18A
:10529000FF3148461160CFE78146F8E74846B2E75C
:1052A0002DC600088C4600B586461346034A714653
:1052B00010685DF804EB6246FFF758BF4800002015
:1052C000024A0349034800F0C9B800BF3C0000206F
:1052D00025840008500000200C4B416810B599420D
:1052E000044601D003F09EF8A168094B994202D010
:1052F000204603F097F8E168064B994204D0204617
:10530000BDE8104003F08EB810BD00BFC40B0020F4
:105310002C0C0020940C00202DE9F84300250423D8
:10532000304C314A3149DFF8C890DFF8C880324F3D
:10533000324E116004F15C0029460822C4E90335AD
:10534000C4E90055C4E90555A560656600F012F989
:1053500004F15800C4E90749C4E90987E66200F08E
:10536000B7FA274B2946082204F1C4006367C4E951
:105370001A55C4E91E552567C4F8CC50C4F88050AE
:1053800000F0F8F804F1680304F1C000C4F88430B8
:10539000C4E92298C4E9247600F09AFA194B294608
:1053A00004F596700822C4F8DC30C4E93455C4E929
:1053B0003855C4F8D850C4F83451C4F8E85000F057
:1053C000D9F804F1D003C4E93D87C4F8F09004F59E
:1053D0009470C4F8FC60C4F8EC30BDE8F84300F009
:1053E00077BA00BFC40B0020FC0C0020C15200089B
:1053F000E554000809550008495500086D55000896
:10540000090001001200020010B504460A4800F02D
:1054100063FA636B23B9094B094A1B68626323B1C2
:10542000BDE81040044800F059BAFFF775FFBDE829
:105430001040014800F052BA0C0D0020FC0C002076
:10544000D9520008014800F047BA00BF0C0D0020F7
:10545000014800F043BA00BF0C0D00202DE9F843CD
:105460004FF0000980460F461646D6E90154013D2B
:1054700010D4A389012B08D9B4F90E30013304D01C
:1054800021464046B84749EA0009013D6B1C04F13A
:105490006804EED13668002EE7D14846BDE8F883AF
:1054A0000EB470B504466FF0004600259DB00B4A5F
:1054B00021AB0B49106853F8042B059102A9CDE9E3
:1054C0000134049607961B95069400F061FE029B3A
:1054D0001D701DB0BDE8704003B07047480000204B
:1054E0000802FFFF10B50C46B1F90E1000F096F956
:1054F000002803DB236D0344236510BDA38923F437
:105500008053A38110BD00BF2DE9F0410C46B1F9D5
:105510000C101F46CB05054616460BD421F48051CE
:10552000A1813B4632462846B4F90E10BDE8F04151
:1055300000F08AB9B4F90E100223002200F058F9E5
:10554000B4F90C10EAE700BF10B50C46B1F90E1023
:1055500000F04EF9B4F90C30421C0EBF23F4805316
:1055600043F480532065A38110BD00BFB1F90E1034
:1055700000F02CB9830730B546D08446841805E086
:10558000634603F8011B9D0703D09C46A445F7D151
:1055900030BD013A0244A2EB0C02032A29D9CCB255
:1055A00004EB04240F2A04EB04442FD9A2F1100CBD
:1055B0002CF00F0C03F11005AC44C3E90044C3E91F
:1055C000024410336345F8D112F00C0F02F00F0EB5
:1055D00018D01A462EF0030C9C44AEF1040542F894
:1055E000044B6245FBD125F0030404330EF00302A3
:1055F0002344002ACCD0C9B21A4403F8011B9342B9
:10560000FBD130BD7246F4E70346C6E79646E0E7B5
:1056100011F0FF01034600F0030239D08ABB026893
:1056200010B501EB012E0EEB0E4E8EEA0204A2F134
:10563000013323EA0203A4F1013222EA04021343F4
:1056400013F0803F0FD150F8044F84EA0E0CA4F100
:105650000133ACF1013223EA040322EA0C021343C2
:1056600013F0803FEFD0037823B936E010F8013F04
:10567000002B32D09942F9D110BD8A4228D09A0726
:1056800029D01A7818460133002AF6D110467047FF
:10569000CAB90268A2F1013323EA020313F0803F82
:1056A00008D150F8042FA2F1013323EA020313F0CA
:1056B000803FF6D003785BB110F8013F002BFBD19F
:1056C0007047990705D0184613F8012B002AF8D126
:1056D00070471846DDE71846A1E7184610BD00BF21
:1056E0009AB3034630B543EA0104A4078646084648
:1056F00018D1032A07D815E0043A24D01CF0803FC3
:1057000021D1032A25D90146DEF800407346A4F1D1
:10571000013020EA040C084650F8045B0EF1040E38
:10572000AC42E9D018780C78013AA04208BFD218F0
:1057300007D00CE040B113F8010F11F8014FA0425F
:1057400005D19342F6D1002030BD10467047001BB2
:1057500030BD73460146E5E7024A01231268503224
:1057600000F002B84800002018B370B586468C4699
:105770001EF8015B01E0A54214D01CF8014B002C7F
:10578000F9D1DDB176460C4616F8015B00E063B155
:1057900014F8013B9D42FAD14DB100238EF8003040
:1057A000166070BD6BB17046E0E7B646EAE72E467C
:1057B000F6E710680028D8D1002070470020156057
:1057C00070BDC2F800E0037070BD00BF002238B5A4
:1057D000064D044608462A60FBF704FF431C00D030
:1057E00038BD2B68002BFBD0236038BD000D002096
:1057F00038B50C46114600228446074D20462A60E3
:105800001A466446FBF7F8FE431C00D038BD2B68EF
:10581000002BFBD0236038BD000D002038B50C46AE
:10582000114600228446074D20462A601A466446E7
:10583000FBF7BAFE431C00D038BD2B68002BFBD011
:10584000236038BD000D002038B50C4611460022FB
:105850008446074D20462A601A466446FBF7B4FE8C
:10586000431C00D038BD2B68002BFBD0236038BD13
:10587000000D0020014B1868704700BF4800002051
:1058800070B50F4B0F4DAB42A3EB050607D00024BC
:10589000B61055F8043B01349847A642F9D806F0F3
:1058A000A7FC094D094B5E1BAB424FEAA60606D08A
:1058B000002455F8043B01349847A642F9D870BD3E
:1058C00078C8000878C8000878C8000880C80008B0
:1058D000704700BF704700BF704700BF704700BFF0
:1058E00020F0030110F00300C0F1000051F8043B68
:1058F00000F1040C4FEACC0C6FF000021CBF22FA3E
:105900000CF213434FF0010C4CEA0C2C4CEA0C4CFB
:10591000A3EB0C0222EA030212EACC1204BF51F8F4
:10592000043B0430F4D0C2F1000102EA0102B2FAF1
:1059300082F2C2F11F0200EBD2007047024B13B19A
:10594000024800F005B87047000000000187000819
:10595000002301461A46184602F06ABF2DE9F843B3
:1059600006460820894602F0DFFE0546DFF89880EB
:10597000304600F001FCD8F808305F6827F00307D4
:10598000A7F11104A4EB09042C44B4FBF5F4013C89
:1059900005FB04F4A54208DC0021304602F09EFE1F
:1059A000D8F808303B44984205D0304600F0EAFB76
:1059B0000020BDE8F8833046614202F08FFE0130DE
:1059C0000FD0124AD8F808303F1B47F001075F603C
:1059D000136830461B1B136000F0D4FB0120BDE8A8
:1059E000F8830021304602F079FED8F80820831AA7
:1059F0000F2BDADD43F001035360054B03491B68AD
:105A0000C01A0860D1E700BF60020020140D00201A
:105A10005402002000295AD0F8B50C46074600F081
:105A2000ABFB54F804CC724DA4F108022CF0010336
:105A3000D118A8684E68884226F003060CF0010EC3
:105A40007CD04E608819406800F00100BEF1000F64
:105A50002ED154F8084C05F1080C121B234494680D
:105A6000644560D0D2F80CE0C4F80CE0CEF80840F1
:105A700000287DD043F0010050600B60B3F5007F3B
:105A80002ED25809D90801238340686801310343A5
:105A90006B6055F8310005EBC103083BC2E9020316
:105AA00045F83120C2603846BDE8F84000F06ABBD6
:105AB00070B9334405F1080C886843F0010460456F
:105AC0006ED0C968C16088605460D350D6E7704713
:105AD0004CF00101B3F5007F44F8041CD350D0D33F
